{
  "contractName": "RedSparrow",
  "abi": [
    {
      "inputs": [],
      "stateMutability": "nonpayable",
      "type": "constructor"
    },
    {
      "inputs": [
        {
          "internalType": "string",
          "name": "username",
          "type": "string"
        },
        {
          "internalType": "string",
          "name": "text",
          "type": "string"
        }
      ],
      "name": "AddPost",
      "outputs": [],
      "stateMutability": "nonpayable",
      "type": "function"
    },
    {
      "inputs": [
        {
          "internalType": "uint256",
          "name": "id",
          "type": "uint256"
        },
        {
          "internalType": "string",
          "name": "username",
          "type": "string"
        },
        {
          "internalType": "string",
          "name": "text",
          "type": "string"
        }
      ],
      "name": "AddComment",
      "outputs": [],
      "stateMutability": "nonpayable",
      "type": "function"
    },
    {
      "inputs": [],
      "name": "GetPosts",
      "outputs": [
        {
          "components": [
            {
              "internalType": "uint256",
              "name": "PostId",
              "type": "uint256"
            },
            {
              "internalType": "address",
              "name": "User",
              "type": "address"
            },
            {
              "internalType": "string",
              "name": "Username",
              "type": "string"
            },
            {
              "internalType": "string",
              "name": "Text",
              "type": "string"
            }
          ],
          "internalType": "struct RedSparrow.Post[]",
          "name": "",
          "type": "tuple[]"
        }
      ],
      "stateMutability": "view",
      "type": "function"
    },
    {
      "inputs": [
        {
          "internalType": "uint256",
          "name": "id",
          "type": "uint256"
        }
      ],
      "name": "GetComments",
      "outputs": [
        {
          "components": [
            {
              "internalType": "address",
              "name": "User",
              "type": "address"
            },
            {
              "internalType": "uint256",
              "name": "PostId",
              "type": "uint256"
            },
            {
              "internalType": "string",
              "name": "Username",
              "type": "string"
            },
            {
              "internalType": "string",
              "name": "Text",
              "type": "string"
            }
          ],
          "internalType": "struct RedSparrow.Comment[]",
          "name": "",
          "type": "tuple[]"
        }
      ],
      "stateMutability": "view",
      "type": "function"
    },
    {
      "inputs": [],
      "name": "GetAllComments",
      "outputs": [
        {
          "components": [
            {
              "internalType": "address",
              "name": "User",
              "type": "address"
            },
            {
              "internalType": "uint256",
              "name": "PostId",
              "type": "uint256"
            },
            {
              "internalType": "string",
              "name": "Username",
              "type": "string"
            },
            {
              "internalType": "string",
              "name": "Text",
              "type": "string"
            }
          ],
          "internalType": "struct RedSparrow.Comment[]",
          "name": "",
          "type": "tuple[]"
        }
      ],
      "stateMutability": "view",
      "type": "function"
    }
  ],
  "bytecode": "0x608060405260008055600060015534801561001957600080fd5b506111f9806100296000396000f3fe608060405234801561001057600080fd5b50600436106100575760003560e01c8063198f3d111461005c5780633891c26c146100785780637fc59ce914610096578063d9fe8e5d146100b2578063f16b9323146100e2575b600080fd5b61007660048036038101906100719190610be1565b610100565b005b610080610233565b60405161008d9190610e67565b60405180910390f35b6100b060048036038101906100ab9190610eb5565b610416565b005b6100cc60048036038101906100c79190610f40565b610549565b6040516100d99190610e67565b60405180910390f35b6100ea610785565b6040516100f79190611099565b60405180910390f35b610108610968565b33816020019073ffffffffffffffffffffffffffffffffffffffff16908173ffffffffffffffffffffffffffffffffffffffff168152505060005481600001818152505082816040018190525081816060018190525060028190806001815401808255809150506001900390600052602060002090600402016000909190919091506000820151816000015560208201518160010160006101000a81548173ffffffffffffffffffffffffffffffffffffffff021916908373ffffffffffffffffffffffffffffffffffffffff16021790555060408201518160020190805190602001906101f79291906109a6565b5060608201518160030190805190602001906102149291906109a6565b505050600080815480929190610229906110ea565b9190505550505050565b60606003805480602002602001604051908101604052809291908181526020016000905b8282101561040d57838290600052602060002090600402016040518060800160405290816000820160009054906101000a900473ffffffffffffffffffffffffffffffffffffffff1673ffffffffffffffffffffffffffffffffffffffff1673ffffffffffffffffffffffffffffffffffffffff168152602001600182015481526020016002820180546102ea90611162565b80601f016020809104026020016040519081016040528092919081815260200182805461031690611162565b80156103635780601f1061033857610100808354040283529160200191610363565b820191906000526020600020905b81548152906001019060200180831161034657829003601f168201915b5050505050815260200160038201805461037c90611162565b80601f01602080910402602001604051908101604052809291908181526020018280546103a890611162565b80156103f55780601f106103ca576101008083540402835291602001916103f5565b820191906000526020600020905b8154815290600101906020018083116103d857829003601f168201915b50505050508152505081526020019060010190610257565b50505050905090565b61041e610a2c565b8281604001819052508181606001819052508381602001818152505033816000019073ffffffffffffffffffffffffffffffffffffffff16908173ffffffffffffffffffffffffffffffffffffffff1681525050600381908060018154018082558091505060019003906000526020600020906004020160009091909190915060008201518160000160006101000a81548173ffffffffffffffffffffffffffffffffffffffff021916908373ffffffffffffffffffffffffffffffffffffffff16021790555060208201518160010155604082015181600201908051906020019061050b9291906109a6565b5060608201518160030190805190602001906105289291906109a6565b5050506001600081548092919061053e906110ea565b919050555050505050565b60606000606060005b60015481101561077a57846003828154811061057157610570611194565b5b9060005260206000209060040201600101541415610767576003818154811061059d5761059c611194565b5b90600052602060002090600402016040518060800160405290816000820160009054906101000a900473ffffffffffffffffffffffffffffffffffffffff1673ffffffffffffffffffffffffffffffffffffffff1673ffffffffffffffffffffffffffffffffffffffff1681526020016001820154815260200160028201805461062690611162565b80601f016020809104026020016040519081016040528092919081815260200182805461065290611162565b801561069f5780601f106106745761010080835404028352916020019161069f565b820191906000526020600020905b81548152906001019060200180831161068257829003601f168201915b505050505081526020016003820180546106b890611162565b80601f01602080910402602001604051908101604052809291908181526020018280546106e490611162565b80156107315780601f1061070657610100808354040283529160200191610731565b820191906000526020600020905b81548152906001019060200180831161071457829003601f168201915b50505050508152505082848151811061074d5761074c611194565b5b60200260200101819052508280610763906110ea565b9350505b8080610772906110ea565b915050610552565b508092505050919050565b60606002805480602002602001604051908101604052809291908181526020016000905b8282101561095f5783829060005260206000209060040201604051806080016040529081600082015481526020016001820160009054906101000a900473ffffffffffffffffffffffffffffffffffffffff1673ffffffffffffffffffffffffffffffffffffffff1673ffffffffffffffffffffffffffffffffffffffff16815260200160028201805461083c90611162565b80601f016020809104026020016040519081016040528092919081815260200182805461086890611162565b80156108b55780601f1061088a576101008083540402835291602001916108b5565b820191906000526020600020905b81548152906001019060200180831161089857829003601f168201915b505050505081526020016003820180546108ce90611162565b80601f01602080910402602001604051908101604052809291908181526020018280546108fa90611162565b80156109475780601f1061091c57610100808354040283529160200191610947565b820191906000526020600020905b81548152906001019060200180831161092a57829003601f168201915b505050505081525050815260200190600101906107a9565b50505050905090565b604051806080016040528060008152602001600073ffffffffffffffffffffffffffffffffffffffff16815260200160608152602001606081525090565b8280546109b290611162565b90600052602060002090601f0160209004810192826109d45760008555610a1b565b82601f106109ed57805160ff1916838001178555610a1b565b82800160010185558215610a1b579182015b82811115610a1a5782518255916020019190600101906109ff565b5b509050610a289190610a6a565b5090565b6040518060800160405280600073ffffffffffffffffffffffffffffffffffffffff1681526020016000815260200160608152602001606081525090565b5b80821115610a83576000816000905550600101610a6b565b5090565b6000604051905090565b600080fd5b600080fd5b600080fd5b600080fd5b6000601f19601f8301169050919050565b7f4e487b7100000000000000000000000000000000000000000000000000000000600052604160045260246000fd5b610aee82610aa5565b810181811067ffffffffffffffff82111715610b0d57610b0c610ab6565b5b80604052505050565b6000610b20610a87565b9050610b2c8282610ae5565b919050565b600067ffffffffffffffff821115610b4c57610b4b610ab6565b5b610b5582610aa5565b9050602081019050919050565b82818337600083830152505050565b6000610b84610b7f84610b31565b610b16565b905082815260208101848484011115610ba057610b9f610aa0565b5b610bab848285610b62565b509392505050565b600082601f830112610bc857610bc7610a9b565b5b8135610bd8848260208601610b71565b91505092915050565b60008060408385031215610bf857610bf7610a91565b5b600083013567ffffffffffffffff811115610c1657610c15610a96565b5b610c2285828601610bb3565b925050602083013567ffffffffffffffff811115610c4357610c42610a96565b5b610c4f85828601610bb3565b9150509250929050565b600081519050919050565b600082825260208201905092915050565b6000819050602082019050919050565b600073ffffffffffffffffffffffffffffffffffffffff82169050919050565b6000610cb082610c85565b9050919050565b610cc081610ca5565b82525050565b6000819050919050565b610cd981610cc6565b82525050565b600081519050919050565b600082825260208201905092915050565b60005b83811015610d19578082015181840152602081019050610cfe565b83811115610d28576000848401525b50505050565b6000610d3982610cdf565b610d438185610cea565b9350610d53818560208601610cfb565b610d5c81610aa5565b840191505092915050565b6000608083016000830151610d7f6000860182610cb7565b506020830151610d926020860182610cd0565b5060408301518482036040860152610daa8282610d2e565b91505060608301518482036060860152610dc48282610d2e565b9150508091505092915050565b6000610ddd8383610d67565b905092915050565b6000602082019050919050565b6000610dfd82610c59565b610e078185610c64565b935083602082028501610e1985610c75565b8060005b85811015610e555784840389528151610e368582610dd1565b9450610e4183610de5565b925060208a01995050600181019050610e1d565b50829750879550505050505092915050565b60006020820190508181036000830152610e818184610df2565b905092915050565b610e9281610cc6565b8114610e9d57600080fd5b50565b600081359050610eaf81610e89565b92915050565b600080600060608486031215610ece57610ecd610a91565b5b6000610edc86828701610ea0565b935050602084013567ffffffffffffffff811115610efd57610efc610a96565b5b610f0986828701610bb3565b925050604084013567ffffffffffffffff811115610f2a57610f29610a96565b5b610f3686828701610bb3565b9150509250925092565b600060208284031215610f5657610f55610a91565b5b6000610f6484828501610ea0565b91505092915050565b600081519050919050565b600082825260208201905092915050565b6000819050602082019050919050565b6000608083016000830151610fb16000860182610cd0565b506020830151610fc46020860182610cb7565b5060408301518482036040860152610fdc8282610d2e565b91505060608301518482036060860152610ff68282610d2e565b9150508091505092915050565b600061100f8383610f99565b905092915050565b6000602082019050919050565b600061102f82610f6d565b6110398185610f78565b93508360208202850161104b85610f89565b8060005b8581101561108757848403895281516110688582611003565b945061107383611017565b925060208a0199505060018101905061104f565b50829750879550505050505092915050565b600060208201905081810360008301526110b38184611024565b905092915050565b7f4e487b7100000000000000000000000000000000000000000000000000000000600052601160045260246000fd5b60006110f582610cc6565b91507fffffffffffffffffffffffffffffffffffffffffffffffffffffffffffffffff821415611128576111276110bb565b5b600182019050919050565b7f4e487b7100000000000000000000000000000000000000000000000000000000600052602260045260246000fd5b6000600282049050600182168061117a57607f821691505b6020821081141561118e5761118d611133565b5b50919050565b7f4e487b7100000000000000000000000000000000000000000000000000000000600052603260045260246000fdfea2646970667358221220cdb152ba84d71c4a50de106fe980ef94f18cf28191db706b1d6df1ccf66d508464736f6c634300080b0033",
  "immutableReferences": {},
  "source": "// SPDX-License-Identifier: MIT\r\npragma solidity >=0.8.4;\r\n\r\ncontract RedSparrow {\r\n\r\n    struct Comment{\r\n\r\n        address User;\r\n        uint256 PostId;\r\n        string Username;\r\n        string Text;\r\n         \r\n    }\r\n\r\n    struct Post{\r\n\r\n        uint256 PostId;\r\n\r\n        address User;\r\n        string Username;\r\n        string Text;\r\n\r\n    }\r\n\r\n    uint256 PostCounter = 0;\r\n    uint256 CommentCounter =0;\r\n\r\n    Post[] posts;\r\n    Comment[] comments;\r\n\r\n    \r\n\r\n    constructor(){\r\n        \r\n    }\r\n\r\n    function AddPost(\r\n        string memory username,\r\n        string memory text\r\n\r\n    ) public  {\r\n\r\n        Post memory post;\r\n\r\n        post.User = msg.sender;\r\n        post.PostId = PostCounter;\r\n        post.Username = username;\r\n        post.Text = text;\r\n        \r\n\r\n        posts.push(post);\r\n        PostCounter++;\r\n        \r\n\r\n    }\r\n\r\n    function AddComment(\r\n        uint256  id,\r\n        string memory username,\r\n        string memory text\r\n\r\n\r\n    )public{\r\n\r\n        Comment memory comment;\r\n\r\n        comment.Username = username;\r\n        comment.Text = text;\r\n        comment.PostId = id;\r\n        comment.User = msg.sender;\r\n\r\n        comments.push(comment);\r\n        CommentCounter++;\r\n\r\n    }\r\n\r\n    function GetPosts() public view returns(Post[] memory){\r\n        return posts;\r\n    }\r\n\r\n    function GetComments(\r\n        uint256 id\r\n    ) public view returns(Comment[] memory){\r\n\r\n        uint256 counter =0;\r\n        Comment[] memory Array;\r\n        for(uint256 i=0; i < CommentCounter; i++ ){\r\n            if(comments[i].PostId == id){\r\n\r\n                Array[counter] = comments[i];\r\n                counter++;\r\n            }\r\n        }\r\n        return Array;\r\n    }\r\n    function GetAllComments() public view returns(Comment[] memory){\r\n        return comments;\r\n    }\r\n\r\n\r\n}",
  "sourcePath": "F:\\Documents\\RedSparrow\\src\\contracts\\RedSparrow.sol",
  "compiler": {
    "name": "solc",
    "version": "0.8.11+commit.d7f03943.Emscripten.clang"
  },
  "schemaVersion": "3.4.4",
  "updatedAt": "2021-12-24T10:08:30.277Z",
  "devdoc": {
    "kind": "dev",
    "methods": {},
    "version": 1
  },
  "userdoc": {
    "kind": "user",
    "methods": {},
    "version": 1
  }
}