{
  "contractName": "RedSparrow",
  "abi": [
    {
      "inputs": [],
      "stateMutability": "nonpayable",
      "type": "constructor"
    },
    {
      "inputs": [
        {
          "internalType": "string",
          "name": "Username",
          "type": "string"
        },
        {
          "internalType": "string",
          "name": "Info",
          "type": "string"
        },
        {
          "internalType": "string",
          "name": "ImageUrl",
          "type": "string"
        }
      ],
      "name": "EditUser",
      "outputs": [],
      "stateMutability": "nonpayable",
      "type": "function"
    },
    {
      "inputs": [],
      "name": "GetUsers",
      "outputs": [
        {
          "components": [
            {
              "internalType": "string",
              "name": "Username",
              "type": "string"
            },
            {
              "internalType": "address",
              "name": "Address",
              "type": "address"
            },
            {
              "internalType": "string",
              "name": "Info",
              "type": "string"
            },
            {
              "internalType": "string",
              "name": "ImageUrl",
              "type": "string"
            }
          ],
          "internalType": "struct RedSparrow.User[]",
          "name": "",
          "type": "tuple[]"
        }
      ],
      "stateMutability": "view",
      "type": "function"
    },
    {
      "inputs": [
        {
          "internalType": "string",
          "name": "Username",
          "type": "string"
        },
        {
          "internalType": "string",
          "name": "Info",
          "type": "string"
        },
        {
          "internalType": "string",
          "name": "ImageUrl",
          "type": "string"
        }
      ],
      "name": "AddUser",
      "outputs": [],
      "stateMutability": "nonpayable",
      "type": "function"
    },
    {
      "inputs": [
        {
          "internalType": "string",
          "name": "username",
          "type": "string"
        },
        {
          "internalType": "string",
          "name": "text",
          "type": "string"
        }
      ],
      "name": "AddPost",
      "outputs": [],
      "stateMutability": "nonpayable",
      "type": "function"
    },
    {
      "inputs": [
        {
          "internalType": "uint256",
          "name": "id",
          "type": "uint256"
        },
        {
          "internalType": "string",
          "name": "username",
          "type": "string"
        },
        {
          "internalType": "string",
          "name": "text",
          "type": "string"
        }
      ],
      "name": "AddComment",
      "outputs": [],
      "stateMutability": "nonpayable",
      "type": "function"
    },
    {
      "inputs": [],
      "name": "GetPosts",
      "outputs": [
        {
          "components": [
            {
              "internalType": "uint256",
              "name": "PostId",
              "type": "uint256"
            },
            {
              "internalType": "address",
              "name": "User",
              "type": "address"
            },
            {
              "internalType": "string",
              "name": "Username",
              "type": "string"
            },
            {
              "internalType": "string",
              "name": "Text",
              "type": "string"
            }
          ],
          "internalType": "struct RedSparrow.Post[]",
          "name": "",
          "type": "tuple[]"
        }
      ],
      "stateMutability": "view",
      "type": "function"
    },
    {
      "inputs": [
        {
          "internalType": "uint256",
          "name": "id",
          "type": "uint256"
        }
      ],
      "name": "GetComments",
      "outputs": [
        {
          "components": [
            {
              "internalType": "address",
              "name": "User",
              "type": "address"
            },
            {
              "internalType": "uint256",
              "name": "PostId",
              "type": "uint256"
            },
            {
              "internalType": "string",
              "name": "Username",
              "type": "string"
            },
            {
              "internalType": "string",
              "name": "Text",
              "type": "string"
            }
          ],
          "internalType": "struct RedSparrow.Comment[]",
          "name": "",
          "type": "tuple[]"
        }
      ],
      "stateMutability": "view",
      "type": "function"
    },
    {
      "inputs": [],
      "name": "GetAllComments",
      "outputs": [
        {
          "components": [
            {
              "internalType": "address",
              "name": "User",
              "type": "address"
            },
            {
              "internalType": "uint256",
              "name": "PostId",
              "type": "uint256"
            },
            {
              "internalType": "string",
              "name": "Username",
              "type": "string"
            },
            {
              "internalType": "string",
              "name": "Text",
              "type": "string"
            }
          ],
          "internalType": "struct RedSparrow.Comment[]",
          "name": "",
          "type": "tuple[]"
        }
      ],
      "stateMutability": "view",
      "type": "function"
    }
  ],
  "bytecode": "0x6080604052600080556000600155600060025534801561001e57600080fd5b50611a728061002e6000396000f3fe608060405234801561001057600080fd5b50600436106100885760003560e01c8063d9fe8e5d1161005b578063d9fe8e5d146100ff578063da3eec191461012f578063df876f9b1461014d578063f16b93231461016957610088565b8063198f3d111461008d5780633891c26c146100a95780637fc59ce9146100c7578063c8996397146100e3575b600080fd5b6100a760048036038101906100a2919061125e565b610187565b005b6100b16102ba565b6040516100be91906114e4565b60405180910390f35b6100e160048036038101906100dc9190611532565b61049d565b005b6100fd60048036038101906100f891906115bd565b6105d0565b005b61011960048036038101906101149190611664565b61073a565b60405161012691906114e4565b60405180910390f35b610137610976565b60405161014491906117c4565b60405180910390f35b610167600480360381019061016291906115bd565b610be1565b005b610171610dc4565b60405161017e9190611912565b60405180910390f35b61018f610fa7565b33816020019073ffffffffffffffffffffffffffffffffffffffff16908173ffffffffffffffffffffffffffffffffffffffff168152505060005481600001818152505082816040018190525081816060018190525060038190806001815401808255809150506001900390600052602060002090600402016000909190919091506000820151816000015560208201518160010160006101000a81548173ffffffffffffffffffffffffffffffffffffffff021916908373ffffffffffffffffffffffffffffffffffffffff160217905550604082015181600201908051906020019061027e929190610fe5565b50606082015181600301908051906020019061029b929190610fe5565b5050506000808154809291906102b090611963565b9190505550505050565b60606004805480602002602001604051908101604052809291908181526020016000905b8282101561049457838290600052602060002090600402016040518060800160405290816000820160009054906101000a900473ffffffffffffffffffffffffffffffffffffffff1673ffffffffffffffffffffffffffffffffffffffff1673ffffffffffffffffffffffffffffffffffffffff16815260200160018201548152602001600282018054610371906119db565b80601f016020809104026020016040519081016040528092919081815260200182805461039d906119db565b80156103ea5780601f106103bf576101008083540402835291602001916103ea565b820191906000526020600020905b8154815290600101906020018083116103cd57829003601f168201915b50505050508152602001600382018054610403906119db565b80601f016020809104026020016040519081016040528092919081815260200182805461042f906119db565b801561047c5780601f106104515761010080835404028352916020019161047c565b820191906000526020600020905b81548152906001019060200180831161045f57829003601f168201915b505050505081525050815260200190600101906102de565b50505050905090565b6104a561106b565b8281604001819052508181606001819052508381602001818152505033816000019073ffffffffffffffffffffffffffffffffffffffff16908173ffffffffffffffffffffffffffffffffffffffff1681525050600481908060018154018082558091505060019003906000526020600020906004020160009091909190915060008201518160000160006101000a81548173ffffffffffffffffffffffffffffffffffffffff021916908373ffffffffffffffffffffffffffffffffffffffff160217905550602082015181600101556040820151816002019080519060200190610592929190610fe5565b5060608201518160030190805190602001906105af929190610fe5565b505050600160008154809291906105c590611963565b919050555050505050565b6105d86110a9565b83816000018190525033816020019073ffffffffffffffffffffffffffffffffffffffff16908173ffffffffffffffffffffffffffffffffffffffff16815250508281604001819052508181606001819052506000600660003373ffffffffffffffffffffffffffffffffffffffff1673ffffffffffffffffffffffffffffffffffffffff168152602001908152602001600020549050816005828154811061068457610683611a0d565b5b906000526020600020906004020160008201518160000190805190602001906106ae929190610fe5565b5060208201518160010160006101000a81548173ffffffffffffffffffffffffffffffffffffffff021916908373ffffffffffffffffffffffffffffffffffffffff1602179055506040820151816002019080519060200190610712929190610fe5565b50606082015181600301908051906020019061072f929190610fe5565b509050505050505050565b60606000606060005b60015481101561096b57846004828154811061076257610761611a0d565b5b9060005260206000209060040201600101541415610958576004818154811061078e5761078d611a0d565b5b90600052602060002090600402016040518060800160405290816000820160009054906101000a900473ffffffffffffffffffffffffffffffffffffffff1673ffffffffffffffffffffffffffffffffffffffff1673ffffffffffffffffffffffffffffffffffffffff16815260200160018201548152602001600282018054610817906119db565b80601f0160208091040260200160405190810160405280929190818152602001828054610843906119db565b80156108905780601f1061086557610100808354040283529160200191610890565b820191906000526020600020905b81548152906001019060200180831161087357829003601f168201915b505050505081526020016003820180546108a9906119db565b80601f01602080910402602001604051908101604052809291908181526020018280546108d5906119db565b80156109225780601f106108f757610100808354040283529160200191610922565b820191906000526020600020905b81548152906001019060200180831161090557829003601f168201915b50505050508152505082848151811061093e5761093d611a0d565b5b6020026020010181905250828061095490611963565b9350505b808061096390611963565b915050610743565b508092505050919050565b60606005805480602002602001604051908101604052809291908181526020016000905b82821015610bd857838290600052602060002090600402016040518060800160405290816000820180546109cd906119db565b80601f01602080910402602001604051908101604052809291908181526020018280546109f9906119db565b8015610a465780601f10610a1b57610100808354040283529160200191610a46565b820191906000526020600020905b815481529060010190602001808311610a2957829003601f168201915b505050505081526020016001820160009054906101000a900473ffffffffffffffffffffffffffffffffffffffff1673ffffffffffffffffffffffffffffffffffffffff1673ffffffffffffffffffffffffffffffffffffffff168152602001600282018054610ab5906119db565b80601f0160208091040260200160405190810160405280929190818152602001828054610ae1906119db565b8015610b2e5780601f10610b0357610100808354040283529160200191610b2e565b820191906000526020600020905b815481529060010190602001808311610b1157829003601f168201915b50505050508152602001600382018054610b47906119db565b80601f0160208091040260200160405190810160405280929190818152602001828054610b73906119db565b8015610bc05780601f10610b9557610100808354040283529160200191610bc0565b820191906000526020600020905b815481529060010190602001808311610ba357829003601f168201915b5050505050815250508152602001906001019061099a565b50505050905090565b610be96110a9565b83816000018190525033816020019073ffffffffffffffffffffffffffffffffffffffff16908173ffffffffffffffffffffffffffffffffffffffff168152505082816040018190525081816060018190525060058190806001815401808255809150506001900390600052602060002090600402016000909190919091506000820151816000019080519060200190610c84929190610fe5565b5060208201518160010160006101000a81548173ffffffffffffffffffffffffffffffffffffffff021916908373ffffffffffffffffffffffffffffffffffffffff1602179055506040820151816002019080519060200190610ce8929190610fe5565b506060820151816003019080519060200190610d05929190610fe5565b5050506001600760003373ffffffffffffffffffffffffffffffffffffffff1673ffffffffffffffffffffffffffffffffffffffff16815260200190815260200160002060006101000a81548160ff021916908315150217905550600254600660003373ffffffffffffffffffffffffffffffffffffffff1673ffffffffffffffffffffffffffffffffffffffff1681526020019081526020016000208190555060026000815480929190610db990611963565b919050555050505050565b60606003805480602002602001604051908101604052809291908181526020016000905b82821015610f9e5783829060005260206000209060040201604051806080016040529081600082015481526020016001820160009054906101000a900473ffffffffffffffffffffffffffffffffffffffff1673ffffffffffffffffffffffffffffffffffffffff1673ffffffffffffffffffffffffffffffffffffffff168152602001600282018054610e7b906119db565b80601f0160208091040260200160405190810160405280929190818152602001828054610ea7906119db565b8015610ef45780601f10610ec957610100808354040283529160200191610ef4565b820191906000526020600020905b815481529060010190602001808311610ed757829003601f168201915b50505050508152602001600382018054610f0d906119db565b80601f0160208091040260200160405190810160405280929190818152602001828054610f39906119db565b8015610f865780601f10610f5b57610100808354040283529160200191610f86565b820191906000526020600020905b815481529060010190602001808311610f6957829003601f168201915b50505050508152505081526020019060010190610de8565b50505050905090565b604051806080016040528060008152602001600073ffffffffffffffffffffffffffffffffffffffff16815260200160608152602001606081525090565b828054610ff1906119db565b90600052602060002090601f016020900481019282611013576000855561105a565b82601f1061102c57805160ff191683800117855561105a565b8280016001018555821561105a579182015b8281111561105957825182559160200191906001019061103e565b5b50905061106791906110e7565b5090565b6040518060800160405280600073ffffffffffffffffffffffffffffffffffffffff1681526020016000815260200160608152602001606081525090565b604051806080016040528060608152602001600073ffffffffffffffffffffffffffffffffffffffff16815260200160608152602001606081525090565b5b808211156111005760008160009055506001016110e8565b5090565b6000604051905090565b600080fd5b600080fd5b600080fd5b600080fd5b6000601f19601f8301169050919050565b7f4e487b7100000000000000000000000000000000000000000000000000000000600052604160045260246000fd5b61116b82611122565b810181811067ffffffffffffffff8211171561118a57611189611133565b5b80604052505050565b600061119d611104565b90506111a98282611162565b919050565b600067ffffffffffffffff8211156111c9576111c8611133565b5b6111d282611122565b9050602081019050919050565b82818337600083830152505050565b60006112016111fc846111ae565b611193565b90508281526020810184848401111561121d5761121c61111d565b5b6112288482856111df565b509392505050565b600082601f83011261124557611244611118565b5b81356112558482602086016111ee565b91505092915050565b600080604083850312156112755761127461110e565b5b600083013567ffffffffffffffff81111561129357611292611113565b5b61129f85828601611230565b925050602083013567ffffffffffffffff8111156112c0576112bf611113565b5b6112cc85828601611230565b9150509250929050565b600081519050919050565b600082825260208201905092915050565b6000819050602082019050919050565b600073ffffffffffffffffffffffffffffffffffffffff82169050919050565b600061132d82611302565b9050919050565b61133d81611322565b82525050565b6000819050919050565b61135681611343565b82525050565b600081519050919050565b600082825260208201905092915050565b60005b8381101561139657808201518184015260208101905061137b565b838111156113a5576000848401525b50505050565b60006113b68261135c565b6113c08185611367565b93506113d0818560208601611378565b6113d981611122565b840191505092915050565b60006080830160008301516113fc6000860182611334565b50602083015161140f602086018261134d565b506040830151848203604086015261142782826113ab565b9150506060830151848203606086015261144182826113ab565b9150508091505092915050565b600061145a83836113e4565b905092915050565b6000602082019050919050565b600061147a826112d6565b61148481856112e1565b935083602082028501611496856112f2565b8060005b858110156114d257848403895281516114b3858261144e565b94506114be83611462565b925060208a0199505060018101905061149a565b50829750879550505050505092915050565b600060208201905081810360008301526114fe818461146f565b905092915050565b61150f81611343565b811461151a57600080fd5b50565b60008135905061152c81611506565b92915050565b60008060006060848603121561154b5761154a61110e565b5b60006115598682870161151d565b935050602084013567ffffffffffffffff81111561157a57611579611113565b5b61158686828701611230565b925050604084013567ffffffffffffffff8111156115a7576115a6611113565b5b6115b386828701611230565b9150509250925092565b6000806000606084860312156115d6576115d561110e565b5b600084013567ffffffffffffffff8111156115f4576115f3611113565b5b61160086828701611230565b935050602084013567ffffffffffffffff81111561162157611620611113565b5b61162d86828701611230565b925050604084013567ffffffffffffffff81111561164e5761164d611113565b5b61165a86828701611230565b9150509250925092565b60006020828403121561167a5761167961110e565b5b60006116888482850161151d565b91505092915050565b600081519050919050565b600082825260208201905092915050565b6000819050602082019050919050565b600060808301600083015184820360008601526116da82826113ab565b91505060208301516116ef6020860182611334565b506040830151848203604086015261170782826113ab565b9150506060830151848203606086015261172182826113ab565b9150508091505092915050565b600061173a83836116bd565b905092915050565b6000602082019050919050565b600061175a82611691565b611764818561169c565b935083602082028501611776856116ad565b8060005b858110156117b25784840389528151611793858261172e565b945061179e83611742565b925060208a0199505060018101905061177a565b50829750879550505050505092915050565b600060208201905081810360008301526117de818461174f565b905092915050565b600081519050919050565b600082825260208201905092915050565b6000819050602082019050919050565b600060808301600083015161182a600086018261134d565b50602083015161183d6020860182611334565b506040830151848203604086015261185582826113ab565b9150506060830151848203606086015261186f82826113ab565b9150508091505092915050565b60006118888383611812565b905092915050565b6000602082019050919050565b60006118a8826117e6565b6118b281856117f1565b9350836020820285016118c485611802565b8060005b8581101561190057848403895281516118e1858261187c565b94506118ec83611890565b925060208a019950506001810190506118c8565b50829750879550505050505092915050565b6000602082019050818103600083015261192c818461189d565b905092915050565b7f4e487b7100000000000000000000000000000000000000000000000000000000600052601160045260246000fd5b600061196e82611343565b91507fffffffffffffffffffffffffffffffffffffffffffffffffffffffffffffffff8214156119a1576119a0611934565b5b600182019050919050565b7f4e487b7100000000000000000000000000000000000000000000000000000000600052602260045260246000fd5b600060028204905060018216806119f357607f821691505b60208210811415611a0757611a066119ac565b5b50919050565b7f4e487b7100000000000000000000000000000000000000000000000000000000600052603260045260246000fdfea2646970667358221220edf9d22e17367d42a0d7e86cee6da037082e34bcad181a621038f92a259af2e564736f6c634300080b0033",
  "immutableReferences": {},
  "source": "// SPDX-License-Identifier: MIT\r\npragma solidity >=0.8.4;\r\n\r\ncontract RedSparrow {\r\n\r\n    struct User{\r\n        string Username;\r\n        address Address;\r\n        string Info;\r\n        string ImageUrl;\r\n    }\r\n\r\n    struct Comment{\r\n\r\n        address User;\r\n        uint256 PostId;\r\n        string Username;\r\n        string Text;\r\n    }\r\n\r\n    struct Post{\r\n\r\n        uint256 PostId;\r\n\r\n        address User;\r\n        string Username;\r\n        string Text;\r\n\r\n    }\r\n\r\n    uint256 PostCounter = 0;\r\n    uint256 CommentCounter =0;\r\n    uint256 UserCounter =0;\r\n\r\n    Post[] posts;\r\n    Comment[] comments;\r\n    User[] users;\r\n    \r\n    mapping(address => uint256) UserId;\r\n    mapping(address => bool) UserExist;\r\n\r\n    constructor(){\r\n        \r\n    }\r\n    \r\n    \r\n    function EditUser(\r\n        string memory Username, \r\n        string memory Info , \r\n        string memory ImageUrl ) public{\r\n\r\n        User memory new_user;\r\n\r\n        new_user.Username = Username;\r\n        new_user.Address = msg.sender;\r\n        new_user.Info = Info;\r\n        new_user.ImageUrl = ImageUrl;\r\n\r\n        uint256 id = UserId[msg.sender];\r\n\r\n        users[id] = new_user;\r\n\r\n    }\r\n\r\n    function GetUsers() public view returns(User[] memory){\r\n        return users;\r\n    }\r\n    function AddUser(\r\n        string memory Username, \r\n        string memory Info , \r\n        string memory ImageUrl ) public{\r\n\r\n        User memory new_user;\r\n\r\n        new_user.Username = Username;\r\n        new_user.Address = msg.sender;\r\n        new_user.Info = Info;\r\n        new_user.ImageUrl = ImageUrl;\r\n\r\n        users.push(new_user);\r\n        UserExist[msg.sender] = true;\r\n        UserId[msg.sender] = UserCounter;\r\n        UserCounter++;\r\n        \r\n\r\n    }\r\n    function AddPost(\r\n        string memory username,\r\n        string memory text\r\n\r\n    ) public  {\r\n\r\n        Post memory post;\r\n\r\n        post.User = msg.sender;\r\n        post.PostId = PostCounter;\r\n        post.Username = username;\r\n        post.Text = text;\r\n        \r\n\r\n        posts.push(post);\r\n        PostCounter++;\r\n        \r\n\r\n    }\r\n\r\n    function AddComment(\r\n        uint256  id,\r\n        string memory username,\r\n        string memory text\r\n\r\n\r\n    )public{\r\n\r\n        Comment memory comment;\r\n\r\n        comment.Username = username;\r\n        comment.Text = text;\r\n        comment.PostId = id;\r\n        comment.User = msg.sender;\r\n\r\n        comments.push(comment);\r\n        CommentCounter++;\r\n\r\n    }\r\n\r\n    function GetPosts() public view returns(Post[] memory){\r\n        return posts;\r\n    }\r\n\r\n    function GetComments(\r\n        uint256 id\r\n    ) public view returns(Comment[] memory){\r\n\r\n        uint256 counter =0;\r\n        Comment[] memory Array;\r\n        for(uint256 i=0; i < CommentCounter; i++ ){\r\n            if(comments[i].PostId == id){\r\n\r\n                Array[counter] = comments[i];\r\n                counter++;\r\n            }\r\n        }\r\n        return Array;\r\n    }\r\n    function GetAllComments() public view returns(Comment[] memory){\r\n        return comments;\r\n    }\r\n\r\n\r\n}",
  "sourcePath": "F:\\Documents\\RedSparrow\\src\\contracts\\RedSparrow.sol",
  "compiler": {
    "name": "solc",
    "version": "0.8.11+commit.d7f03943.Emscripten.clang"
  },
  "schemaVersion": "3.4.4",
  "updatedAt": "2021-12-25T08:51:24.364Z",
  "devdoc": {
    "kind": "dev",
    "methods": {},
    "version": 1
  },
  "userdoc": {
    "kind": "user",
    "methods": {},
    "version": 1
  }
}